:100000003CC056C055C054C053C052C051C050C06F
:100010004FC087C54DC04CC04BC04AC049C048C046
:1000200047C046C045C01BC87EC8A3C8AFC8B6C835
:10003000B5C8B4C8B3C8B2C8B1C8B0C8AFC8AEC8F4
:10004000ADC8C4C8CAC83ACA39CA72C9D8C8E8C88B
:10005000F8C808C918C928C938C948C958C98EC9B3
:100060002DCA9AC9A0C917CAA1C9D1C9D3C9D5C9AE
:10007000D7C9D9C9DBC9DDC9FAC911241FBECFE56B
:10008000D4E0DEBFCDBF10E0A0E6B0E0ECE8FDE1DB
:1000900002C005900D92A239B107D9F711E0A2E98B
:1000A000B0E001C01D92A532B107E1F78CD76CCE4C
:1000B000A7CFDF93CF93CDB7DEB727970FB6F894CE
:1000C000DEBF0FBECDBF27960FB6F894DEBF0FBEC2
:1000D000CDBFCF91DF9108956F927F928F929F92C3
:1000E000AF92BF92CF92DF92EF92FF920F931F9346
:1000F000DF93CF93CDB7DEB72E970FB6F894DEBF60
:100100000FBECDBFE22E632E842E652F70E06D19D9
:100110007109882777FD8095982F20E831E541E027
:1001200050E091DD9B01AC0199248C18910880E18D
:100130009EE0BC01869EC001879E900D969E900D0C
:100140001124AA2797FDA095BA2F280F391F4A1FFF
:100150005B1FFF24EA18F1080027F7FC0095102F19
:100160002E0D3F1D401F511F77246B1871088CE323
:1001700090E0BC01669EC001679E900D769E900D3A
:100180001124AA2797FDA095BA2F280F391F4A1FBF
:100190005B1FB901CA012E960FB6F894DEBF0FBEE1
:1001A000CDBFCF91DF911F910F91FF90EF90DF9026
:1001B000CF90BF90AF909F908F907F906F90089559
:1001C00040E0282F269530E0220F331F90E0821761
:1001D000930709F041E0842F0895E82F362F2091EE
:1001E0006000222331F08D3008F0EC50EE2309F44A
:1001F000ECE08E2F6AE046DD8093C400A82FB0E0CB
:1002000086EF9FEFAC01A49FC001A59F900DB49F06
:10021000900D11248E0F8093C5002223B1F0E82F9A
:10022000F0E0AE59BF4F3D3040F0EE59FF4F9081A6
:1002300020918B003091790014C0EE59FF4F9081CE
:1002400020918B00309173000CC0E82FF0E0EE5944
:10025000FF4F9081905820918B0030917200AE59E1
:10026000BF4F8C918093C0009093C1002093C20037
:100270003093C3000895EF92FF920F931F93CF9393
:10028000DF93809161008F3059F4909177009058FE
:10029000E091AA00F091AB00EE59FF4F208180C1A0
:1002A000813009F0B1C08091A5009091A60000971F
:1002B00009F075C0809160008823E1F0E091AA0008
:1002C000F091AB00CF0164E670E0E8DC6D3008F03F
:1002D0006C50662309F46CE024E6629F90011124BF
:1002E000CF0164E670E0DADC280F311D3093AB00FB
:1002F0002093AA004091AA00842F9091AB0064E65D
:1003000070E0CCDCE62F2CE93FEF629F202D11241A
:10031000240F862F6AE0B6DC8093C400A82FB0E0DB
:1003200046EF5FEFA49FC001A59F900DB49F900D75
:1003300011248E0F8093C500822FA4DC8093C60009
:10034000849F802D1124820F8093C700EA3030F003
:10035000AE59BF4F8C918093C00002C01092C00074
:10036000E091C500F0E0EE59FF4F20812093C100DD
:10037000E091C600F0E0E558FF4FE081E093C20055
:1003800080919E0090919F008050944008F08BC017
:1003900020582093C100E058E093C20084C085300B
:1003A000910548F49091730020918E003091770070
:1003B000809174008FC28B30910528F490916C006D
:1003C00020918C0007C08031910548F490916C0019
:1003D0002091870030917600809167007BC245971D
:1003E00048F49091630020918E00309177008091C5
:1003F000760070C2909178009058209191003091D1
:1004000067008091770066C2833009F053C0E091A5
:10041000AA008E2F9091AB0064E670E03FDC462F7F
:100420002CE93FEF629F202D11242E0F862F6AE0CA
:1004300029DC582F8093C400A82FB0E0E6EFFFEF2F
:10044000AE9FC001AF9F900DBE9F900D1124480F2D
:100450004093C500822F16DC8093C6008E9F802DAE
:100460001124820F8093C700552321F0AE59BF4F4E
:100470008C9102C0809172008093C000E091C50011
:10048000F0E0EE59FF4F80818093C100E091C600FB
:10049000EE2329F0F0E0E558FF4F808102C0809103
:1004A0008B008093C200E091C700F0E0EE59FF4F4F
:1004B000808157C1843009F050C0E091AA00F091CA
:1004C000AB00CF0168EE73E0E9DB6093C400E62E79
:1004D000FF2488E19CEFE89E9001E99E300DF89E94
:1004E000300D11242E0F3F1FC90164E670E0D6DBEA
:1004F0006093C500C62FD0E08CE99FEFC89F8001B4
:10050000C99F100DD89F100D1124020F131FC80191
:100510006AE070E0C3DBA62F6093C600B0E086EF10
:100520009FEFA89FF001A99FF00DB89FF00D112437
:10053000E00FF11FE093C700CE59DF4F3881A55877
:10054000BF4F2C91F0E0EE59FF4F908142E650E012
:10055000E40EF51EF701808168C1823009F08FC07A
:100560008091AC00882369F480916F0090918A009B
:100570001092C0008093C1009093C2001092C300FB
:10058000B1C10091A900802F1BDE8823A1F49091B6
:10059000770090580695E02FF0E0EE59FF4F21814B
:1005A000809175008093C0009093C1001092C200AA
:1005B0002093C30097C1E091AA00F091AB00CF0156
:1005C00064E670E06BDB462F6093C400C62FD0E07A
:1005D0008CE99FEFC89F9001C99F300DD89F300DC7
:1005E00011242E0F3F1FC9016AE070E057DB6093B2
:1005F000C50070E086EF9FEFFC016E9FC0016F9F0A
:10060000900D7E9F900D1124820F931F8093C60042
:10061000442319F41092C00005C0CE59DF4F8881E1
:100620008093C000E091C500EE2339F48091C400AE
:10063000882319F41092C10006C0F0E0EE59FF4F74
:1006400080818093C100E091C600F0E0E558FF4F43
:1006500080818093C200E0916000F0E0EE0FFF1F08
:10066000E259FF4F80818093C30080919D008130CB
:1006700009F038C180917A008093C00033C1853081
:10068000C1F480916000882339F0809172009091CC
:1006900091002091670006C08091720090919000B7
:1006A000209178008093C0008093C1009093C20095
:1006B0007FCF863021F460911901862FEAC0873000
:1006C00049F5A09118018A2F6AE0DCDAE82F8093BF
:1006D000C600F0E086EF9FEF9C01E29FC001E39F20
:1006E000900DF29F900D1124A80FA093C700809148
:1006F0007200E558FF4F2081B0E0AE59BF4F9C918A
:100700008093C00080588093C1002093C2009093D2
:10071000C300E8C0883041F5A0911A018A2F6AE031
:10072000B1DAE82F8093C600F0E086EF9FEFAC01CE
:10073000E49FC001E59F900DF49F900D1124A80F38
:10074000A093C70090917200E558FF4F2081B0E060
:10075000AE59BF4F8C919093C0009093C1002093ED
:10076000C2008093C300BEC0893011F5E0911B0127
:100770008E2F6AE087DAA82F8093C400B0E086EF5E
:100780009FEF9C01A29FC001A39F900DB29F900D6F
:100790001124E80FE093C500F0E0EE59FF4F90817F
:1007A00020918B0030917200AE59BF4F8C9192C056
:1007B0008A3009F03FC082E08093C40040911D015F
:1007C000842F64E65FDA8093C500C82FD0E08CE9FF
:1007D0009FEFC89F9001C99F300DD89F300D112405
:1007E000C901840F911D6AE070E06CDAE62F609316
:1007F000C600420FF0E086EF9FEF9C01E29FC00130
:10080000E39F900DF29F900D1124480F4093C70075
:10081000CE59DF4F3881E558FF4F2081E42FF0E0BB
:10082000EE59FF4F9081809164008093C000309317
:10083000C1006BCF8B3079F520919300822F6AE055
:1008400021DAA82F8093C400B0E086EF9FEFAC01BF
:10085000A49FC001A59F900DB49F900D1124E22F7D
:10086000E80FE093C500F0E0EE59FF4F90819058FB
:1008700030918B0040917200AE59BF4F8C918093A4
:10088000C0009093C1003093C2004093C300822FF8
:10089000622FA3DC27C08C3019F4A091920013CFF3
:1008A0008D3019F48091940004C08E30D9F4809179
:1008B0009900813039F490916F0020918B00309134
:1008C000730006C0909170002091890030917200F1
:1008D000809171008093C0009093C1002093C2006A
:1008E0003093C300DF91CF911F910F91FF90EF9054
:1008F0000895C49888EE93E028EC30E0F901319730
:10090000F1F70197D9F7C49A08958091940088234C
:10091000B9F09091930080910801981789F4909113
:10092000920080910701981759F48091060188235D
:1009300039F481E0809398001092A8001092A700EB
:10094000809198008823C1F0D4DF88EE93E028ECF2
:1009500030E0F9013197F1F70197D9F78091A700BD
:100960009091A80001969093A8008093A7008455C9
:100970009B4011F4109298000895B6990EC0B79953
:100980000CC080ED97E028EC30E0F9013197F1F7E9
:100990000197D9F783E090E00895B6990CC080EDF7
:1009A00097E028EC30E0F9013197F1F70197D9F79A
:1009B00081E090E00895B79B03C080E090E0089547
:1009C00080ED97E028EC30E0F9013197F1F70197DD
:1009D000D9F782E090E00895682F80916000653635
:1009E000F0F08130A9F410929D006E3610F48093DF
:1009F0009D0020E830E0261B3109C90143E0880F43
:100A0000991F4A95E1F7820F931F6BEF7FEF11C09B
:100A100081E080939D0080E8861B682F0CC01092B7
:100A20009D00813041F489E0689FC001112465E098
:100A300070E048D9605E862F0895BF92CF92DF9212
:100A4000EF92FF920F931F93DF93CF93CDB7DEB753
:100A500027970FB6F894DEBF0FBECDBF2983F32EC4
:100A60003A83E42E4B83D52E5C83C62E6D83B72E3E
:100A70007E838F8306E010E0C801622F65D9C8012C
:100A800001966F2D61D9C80102966E2D5DD9C801FE
:100A900003966D2D59D9C80104966C2D55D9C801FE
:100AA00005966B2D51D927960FB6F894DEBF0FBE71
:100AB000CDBFCF91DF911F910F91FF90EF90DF900D
:100AC000CF90BF900895DF93CF93CDB7DEB7279730
:100AD0000FB6F894DEBF0FBECDBF8093A100A4D5A2
:100AE00029833A834B835C836D837E838F83A6E067
:100AF000B1E0FE01319687E001900D928150E1F75F
:100B0000809106018093BF0080E29EE40197F1F797
:100B100027960FB6F894DEBF0FBECDBFCF91DF9101
:100B200008951F920F920FB60F9211242F933F93A7
:100B30004F935F936F937F938F939F93AF93BF93E5
:100B4000EF93FF93DF93CF93CDB7DEB72797DEBF49
:100B5000CDBF80919E0090919F00019690939F0041
:100B600080939E009091BF009093B6008091D60034
:100B7000981769F48091A000882309F050C0109262
:100B80009F0010929E0081E08093A00048C01092C8
:100B9000A0002091BB003091BC002115310509F463
:100BA0003EC08091BD009091BE0001979093BE0021
:100BB0008093BD00892B99F53093BE002093BD0032
:100BC00033D529833A834B835C836D837E838F8304
:100BD000A7EDB0E0FE01319687E001900D928150C3
:100BE000E1F78091BB009091BC00892B21F08091AE
:100BF000D7008F5F03C08091D70081508093D700CA
:100C00002091D7003091D8004091D9005091DA005E
:100C10006091DB007091DC008091DD00E2D5809175
:100C2000A100882349F01092A20080919E0090912B
:100C30009F008C5D954018F481E08093A200209184
:100C40009B0030919C0021303105A9F02130310505
:100C500038F022303105D9F02330310571F522C04A
:100C600085B3807F8E6085BB8091A200882329F1A7
:100C70008091C0000AC085B3807F8D6085BB809164
:100C8000A2008823D1F08091C100809517C085B360
:100C9000807F8B6085BB8091A200882371F080915A
:100CA000C200F3CF85B3807F876085BB8091A200AF
:100CB000882319F08091C300E8CF8FEF82BBA90190
:100CC0004F5F5F4F50939C0040939B008091990031
:100CD000882351F02091AE0086E390E0821B9109B9
:100CE0004817590740F003C04430510520F01092D6
:100CF0009C0010929B00809106018093D60027965D
:100D0000DEBFCDBFCF91DF91FF91EF91BF91AF914A
:100D10009F918F917F916F915F914F913F912F9113
:100D20000F900FBE0F901F9018958F929F92AF92C9
:100D3000BF92CF92DF92FF920F931F93DF93CF93D7
:100D4000CDB7DEB729970FB6F894DEBF0FBECDBF83
:100D5000EED58FEF898300E010E072E0C72ED12C32
:100D6000CC0EDD1E4E010894811C911C6AE0A62E5B
:100D7000B12CAC0EBD1E18C0C401B60188D6898145
:100D80008F3FC9F08E3FB9F0D601F80153E0EE0F66
:100D9000FF1F5A95E1F7E252FF4F8D918193AA15FB
:100DA000BB05D9F70F5F1F4FF02E8981882319F0FB
:100DB0000530110509F78F2D29960FB6F894DEBF7F
:100DC0000FBECDBFCF91DF911F910F91FF90DF90AC
:100DD000CF90BF90AF909F908F9008958FEF82BF7C
:100DE00082E083BF81E089BF1BBE789487B38E61A8
:100DF00087BB88B38E6D88BB8FEF85BB84BB82BBFE
:100E000081BB86B1876886B9809106018093B60060
:100E10008093D60085E090E08AD780930D0181E031
:100E200090E085D78093930080E090E080D7809316
:100E3000920082E090E07BD78093940083E090E082
:100E400076D78093990084E090E071D7809360001A
:100E50008DE090E074D79093BC008093BB008FE04E
:100E60008093610062DF8093AC008093AA001092AF
:100E7000AB00882309F43DDDB6990DC0B79B0BC0CC
:100E800060E080910D01882309F461E060930D0119
:100E900085E090E059D7B69B0DC0B7990BC060E0D4
:100EA00080916000882309F461E06093600084E031
:100EB00090E04AD7E0D908955F926F927F928F9227
:100EC0009F92AF92BF92CF92DF92EF92FF920F93D9
:100ED0001F935090220150921401552009F45AC0DA
:100EE0001091240110931601112309F453C020918D
:100EF0001001309111014091120150911301652DA3
:100F000070911501812FA090AF00B090B000C090FB
:100F1000B100D090B200E090B300F090B400009126
:100F2000B500DAD83B014C016092B7007092B8006E
:100F30008092B9009092BA00209110013091110175
:100F40004091120150911301652D70911501812F6F
:100F5000A0901E01B0901F01C0902001D0902101EF
:100F6000E52CF0902301012FB7D86093D200709345
:100F7000D3008093D4009093D50061147104810450
:100F8000910441F0A4019301B0D63093BC002093AA
:100F9000BB0004C01092BC001092BB006091BB006B
:100FA0007091BC008DE090E0DCD61F910F91FF9016
:100FB000EF90DF90CF90BF90AF909F908F907F90F9
:100FC0006F905F9008952F923F924F925F926F9231
:100FD0007F928F929F92AF92BF92CF92DF92EF92C9
:100FE000FF920F931F93CF93DF93F8DE88EE93E089
:100FF00028EC30E0F9013197F1F70197D9F779DC66
:1010000008EC10E07BE0872E6DE0762E59E0652E2F
:1010100048E0542E37E0432E26E0322EFF24F3948E
:1010200090E7C92E97E1D92E84E0282EC4E8D3E0BA
:10103000BAE0EB2EA4E6AA2EB12CF2E09F2E9DDCA6
:10104000882309F0AEC08091610090E0FC013197E7
:10105000EE30F10508F032C2ED5EFF4F0994809149
:10106000A5009091A600009759F480E02CDD8091B6
:10107000080124E6829FC00111242091070183C04A
:101080008630910560F480E01EDDD092A400C0920D
:10109000A3001092A6001092A50083E00EC08B3032
:1010A000910570F481E00FDDD093A400C093A300FC
:1010B0001092A6001092A5008CE080936100FEC102
:1010C00080319105B0F4F092A100D093A400C093B8
:1010D000A3001092A6001092A500A7E1B1E0E6E0FF
:1010E000F1E087E001900D928150E1F7E09261001C
:1010F000E5C1459760F481E0E6DCD093A400C0939D
:10110000A3001092A6001092A5008EE0D6CF81E039
:10111000DADCD093A400C093A3001092A600109232
:10112000A50085E0CACF8091AC00882319F08130FA
:1011300069F406C08FEF90E09093AB008093AA0013
:10114000C4D44ADC8093AA001092AB008091A9001D
:10115000869590E0E3E0880F991FEA95E1F78252C7
:101160009F4F09D539DC8093AA001092AB0080E034
:1011700016C080E0A8DC80910A0124E6829FC001AD
:10118000112420910901820F911D01C180E09BDC97
:1011900080910C0190E08053984FF9C081E093DC7E
:1011A0008DC1813009F0D5C080919800882311F05D
:1011B000109298008091610090E0FC013197EE3030
:1011C000F10508F07BC1EF5DFF4F0994D093A400B7
:1011D000C093A3009092610071C1B092A400A0924C
:1011E000A3008091A9008F5F8093A90086959091BC
:1011F000AC00891709F062C11092A9005FC110927A
:10120000A100D093A400C093A300809119018F5F27
:1012100080931901883108F451C1109219014EC10F
:101220001092A100D093A400C093A3008091180154
:101230008F5F809318018C3308F440C1109218011D
:101240003DC11092A100D093A400C093A30080914F
:101250001A018F5F80931A01803208F42FC1F09237
:101260001A012CC11092A100D093A400C093A30036
:1012700080911B018F5F80931B018D3008F41EC18C
:10128000F0921B011BC11092A100D093A400C09347
:10129000A30080911D018F5F80931D01853608F4A6
:1012A0000DC1E0921D010AC11092A100D093A400CB
:1012B000C093A300809193008F5F80939300883147
:1012C00008F4FCC010929300F9C01092A100D093D2
:1012D000A400C093A300809192008F5F809392003E
:1012E0008C3308F4EBC010929200E8C01092A10079
:1012F000D093A400C093A300809194008F5F80934B
:101300009400823008F4DAC010929400D7C0109292
:10131000A100D093A400C093A300809199008F5F97
:1013200080939900823008F4C9C010929900C6C019
:101330001092A100D093A400C093A30080916000FC
:101340008F5F80936000823008F4B8C01092600014
:10135000B5C0823009F0B2C080919800882311F0A6
:10136000109298008091610090E0FC013197EE307E
:10137000F10508F0A3C0E15DFF4F09948091A5003D
:101380009091A60001969093A6008093A50090935B
:10139000AB008093AA0092C0D092A400C092A30098
:1013A000209261008BC0F092610088C01092A10071
:1013B000A0E1B1E0E7E1F1E087E001900D9281501A
:1013C000E1F7AFEAB0E0E6E0F1E087E001900D92EE
:1013D0008150E1F7209117013091180140911901D6
:1013E00050911A0160911B0170911C0180911D01A7
:1013F000F8D162DD1092A4001092A3007ADA80ED99
:1014000097E0F8013197F1F70197D9F757C030927B
:10141000610054C04092610051C0509261004EC0C2
:10142000609261004BC07092610048C08092610080
:1014300045C01092A10081E090E06091930084D4B7
:1014400080E090E0609192007FD482E090E0609133
:1014500094007AD41092A4001092A3004ADA80ED8E
:1014600097E0F8013197F1F70197D9F727C010926B
:10147000A10083E090E06091990066D41092A400EE
:101480001092A30036DA80ED97E0F8013197F1F77A
:101490000197D9F713C01092A10084E090E0609109
:1014A000600052D41092A4001092A30022DA80EDC2
:1014B00097E0F8013197F1F70197D9F78091A300F0
:1014C0009091A40001979093A4008093A3008F5F54
:1014D0009F4F21F41092A4001092A3008091A300CA
:1014E0009091A400892B21F4F09261001092A90040
:1014F00080910D018823A1F040916100413081F479
:101500002091BF00822F6AE0BDD38E9DC0011124BF
:1015100030E08217930721F4909261004093A90074
:1015200080919E0090919F00892B41F489D38093F4
:10153000AE00833318F082E38093AE009CD6E5D9E9
:101540007ECD87B3817F8A6087BBC29840E020E070
:1015500030E052E061E070E0C398852F8A95F1F7A2
:10156000B29B08C0CB01022E02C0880F991F0A94BB
:10157000E2F7482BC39A852F8A95F1F72F5F3F4FEB
:101580002830310549F7842F089597B39E6097BBA3
:1015900020E030E062E0482F50E0C398862F8A9523
:1015A000F1F7CA01022E02C0959587950A94E2F7D9
:1015B00080FD02C0C29801C0C29A00000000C39A18
:1015C000862F8A95F1F72F5F3F4F2830310529F795
:1015D00008951F93C398C198C19A81E8D6DFB1DFFF
:1015E000182FC398C198C19A80E8CFDF812F8F77D9
:1015F000CCDFC398C198C19A85E8C7DFA2DF182F56
:10160000C398C198C19A84E8C0DF812F8F77BDDF6E
:10161000C398C198C19A8EE8B8DF80E0B6DFC3985E
:10162000C198C19A1F910895AF92BF92CF92DF9255
:10163000EF92FF920F931F93DF93CF93CDB7DEB757
:1016400027970FB6F894DEBF0FBECDBFC398C198E1
:10165000C19A8FEB9ADF00E0BB24AA24CC24DD24BE
:10166000FF24EE2410E06DDF482F033091F00430AA
:1016700028F4013051F0023050F413C0053069F005
:10168000053048F0063061F40AC0E82E09C0F82E93
:1016900007C0D82E05C0C82E03C0A82E01C0B82E82
:1016A000412F0F5F073011F0142FDDCFC398C19881
:1016B000C19AF7FC15C08F2D90E08073907024E0E4
:1016C000959587952A95E1F79C0103E0220F331F3A
:1016D0000A95E1F7880F991F820F9FE0F922F80E13
:1016E0008B2D82958F7090E0FC01B3E0EE0FFF1F11
:1016F000BA95E1F7880F991FE80FF91F8FE0B8221C
:101700008C2D90E08071907074E0959587957A9516
:10171000E1F79C0163E0220F331F6A95E1F7880F20
:10172000991F280F391F9FE0C922C20E8D2D90E00E
:101730008073907024E0959587952A95E1F79C0138
:1017400003E0220F331F0A95E1F7880F991F280F36
:10175000391F8FE0D822D20E8E2D90E080779070C6
:10176000B4E095958795BA95E1F79C01A3E0220F27
:10177000331FAA95E1F7880F991F280F391F9FE0A3
:10178000E922E20E842F90E08077907074E09595C6
:1017900087957A95E1F79C0163E0220F331F6A95E4
:1017A000E1F7880F991F280F391F4F70420F242F20
:1017B0003E2D4F2D5D2D6C2D7A2D8B2D8E0F90E0B3
:1017C00027960FB6F894DEBF0FBECDBFCF91DF9145
:1017D0001F910F91FF90EF90DF90CF90BF90AF904F
:1017E0000895AF92BF92CF92DF92EF92FF920F9344
:1017F0001F93DF93CF93CDB7DEB727970FB6F8943B
:10180000DEBF0FBECDBF2983E32F3A83F42F4B8376
:101810005C836D837E838F83452F562FA82FA72E41
:101820008E2F6AE02FD2282F30E014E0220F331FD2
:101830001A95E1F78E2F26D2B92EB22AF7FF02C0F1
:10184000EF2E0EC08F2F6AE01DD2282F30E0B4E0BB
:10185000220F331FBA95E1F78F2F14D2E92EE22A17
:10186000842F6AE00FD2282F30E0E4E0220F331FEC
:10187000EA95E1F7842F06D2C92EC22A852F02D21B
:10188000282F30E074E0220F331F7A95E1F7852F7F
:10189000F9D1D92ED22A8A2FF5D1282F30E044E071
:1018A000220F331F4A95E1F78A2FECD1F92EF22A45
:1018B000C398C198C19A8EEB68DE00E010E0033057
:1018C000A1F0043028F4013061F0023060F407C068
:1018D000053079F0053058F0063071F40CC010E096
:1018E0000BC01B2D09C01E2D07C01C2D05C01D2DB2
:1018F00003C01A2D01C01F2D812F47DE0F5F073057
:10190000F1F680E042DEC398C198C19A27960FB6DF
:10191000F894DEBF0FBECDBFCF91DF911F910F9125
:10192000FF90EF90DF90CF90BF90AF900895AD986B
:10193000A59A80EC93E00197F1F7A59880EA8A9543
:10194000F1F783B3E8E4F3E03197F1F7807208959B
:10195000F894AD98A59A92E09A95F1F78111A5981F
:1019600080EA8A95F1F7A59878940895F894AD984F
:10197000A59A82E08A95F1F7A59885E28A95F1F714
:1019800083B398E79A95F1F7789490E025E09695DF
:1019900087952A95E1F781700895F894A59A92E0C9
:1019A0009A95F1F78111A59895E29A95F1F79D9B8B
:1019B00080E098E79A95F1F7A598789408950F93A9
:1019C0001F93082F18E004C0802F8170C1DF069597
:1019D0001150D0F71F910F9108950F931F9308E0B6
:1019E00010E008C0C3DF912F9695182F1795112787
:1019F0001795192B0150B0F7812F1F910F91089562
:101A0000DF92EF92FF920F931F93CF93DF93E82E15
:101A1000EB018DDF882381F580EFD1DF80E4FF24A7
:101A2000182F48EFD42ED80E81E0B7DF082F81E0C1
:101A3000B4DF882329F0002371F03EEFF32E1EC09F
:101A4000002349F41E1528F0888180FF04C0E116A8
:101A500011F0F12E01E0802F7BDF8881869588834D
:101A6000002311F08068888311501D15E9F61123B9
:101A700029F02196812FD4CFFF24FA948F2DDF9166
:101A8000CF911F910F91FF90EF90DF9008950F93EA
:101A90001F93CF93DF938C01EB01F8018081BE018E
:101AA000AFDFF801808381508D3F10F081E008C0E6
:101AB0008881883221F0803111F0823271F780E024
:101AC000DF91CF911F910F910895FF920F931F9374
:101AD0002EDF8CEC74DF84E472DF29DF8CEC6FDFA7
:101AE0008EEB6DDF7ADFF82E78DF082F20DFF2949F
:101AF0006FE0F62210E00770107054E0000F111F25
:101B00005A95E1F78F2D802B1F910F91FF9008952B
:101B10000F931F93CF93DF93082FEB0108DF85E529
:101B20004EDF18E089914BDF1150E1F7802F47DF3E
:101B3000DF91CF911F910F910895FF920F931F9303
:101B4000CF93DF939C01162F072FF42E8EEBB90154
:101B5000DFDF212F302FC901EC0110E003C03DDF92
:101B600089931F5F1F15D8F380E0DF91CF911F91FC
:101B70000F91FF9008950F931F93DF93CF93CDB7ED
:101B8000DEB729970FB6F894DEBF0FBECDBF8C012C
:101B9000CEDE84E4B801BCDFC801BE016F5F7F4FB9
:101BA00049E0CBDF882311F020E00DC02981229588
:101BB0002F708A8190E08770907074E0880F991F71
:101BC0007A95E1F7282B822F29960FB6F894DEBF7D
:101BD0000FBECDBFCF91DF911F910F910895806609
:101BE00087B984B384BB85B38FEF85BB60E0E1E048
:101BF000F0E0369A3699FECF25B1862F90E0AC0101
:101C0000E49FC001E59F900DF49F900D1124319643
:101C1000820F911DBF0156D0E536F10551F789E1DC
:101C2000689FC001112466EC7FEF4CD06A59693C73
:101C300010F060E003C0653608F064E6862F089572
:101C400087E0CDDF0895629FD001739FF001829FEE
:101C5000E00DF11D649FE00DF11D929FF00D839F3B
:101C6000F00D749FF00D659FF00D9927729FB00DD8
:101C7000E11DF91F639FB00DE11DF91FBD01CF01EB
:101C800011240895991B79E004C0991F961708F054
:101C9000961B881F7A95C9F780950895AA1BBB1BD0
:101CA00051E107C0AA1FBB1FA617B70710F0A61B5C
:101CB000B70B881F991F5A95A9F780959095BC017D
:101CC000CD01089597FB092E07260AD077FD04D091
:101CD000E5DF06D000201AF4709561957F4F0895D6
:101CE000F6F7909581959F4F0895A1E21A2EAA1BB1
:101CF000BB1BFD010DC0AA1FBB1FEE1FFF1FA217BC
:101D0000B307E407F50720F0A21BB30BE40BF50BB8
:101D1000661F771F881F991F1A9469F76095709541
:101D2000809590959B01AC01BD01CF010895E1998B
:101D3000FECF9FBB8EBBE09A99278DB30895A8E193
:101D4000B0E042E050E012C0262FE199FECF9FBBE9
:101D50008EBB2DBB0FB6F894E29AE19A0FBE0196A6
:101D60000895F2DF272FF1CFDC01CB01FC01E199CF
:101D7000FECF06C0FFBBEEBBE09A31960DB20D92CE
:0C1D800041505040B8F70895F894FFCF90
:101D8C0001013F065B4F666D7D077F6F80633954A1
:101D9C00715C00775E7838793E73403F305B7974C4
:101DAC006D6F387F7D805C0F624E63007E734707DA
:021DBC004F379F
:00000001FF
